{
	"contracts/SimpleStorage.sol": {
		"SimpleStorage": {
			"abi": [
				{
					"inputs": [],
					"name": "favoriteNumber",
					"outputs": [
						{
							"internalType": "uint256",
							"name": "",
							"type": "uint256"
						}
					],
					"stateMutability": "view",
					"type": "function"
				},
				{
					"inputs": [],
					"name": "retrieve",
					"outputs": [
						{
							"internalType": "uint256",
							"name": "",
							"type": "uint256"
						}
					],
					"stateMutability": "view",
					"type": "function"
				},
				{
					"inputs": [
						{
							"internalType": "uint256",
							"name": "_favoriteNumber",
							"type": "uint256"
						}
					],
					"name": "store",
					"outputs": [],
					"stateMutability": "nonpayable",
					"type": "function"
				}
			],
			"devdoc": {
				"kind": "dev",
				"methods": {},
				"version": 1
			},
			"evm": {
				"assembly": "    /* \"contracts/SimpleStorage.sol\":61:687  contract SimpleStorage {... */\n  mstore(0x40, 0x80)\n  callvalue\n  dup1\n  iszero\n  tag_1\n  jumpi\n  0x00\n  dup1\n  revert\ntag_1:\n  pop\n  dataSize(sub_0)\n  dup1\n  dataOffset(sub_0)\n  0x00\n  codecopy\n  0x00\n  return\nstop\n\nsub_0: assembly {\n        /* \"contracts/SimpleStorage.sol\":61:687  contract SimpleStorage {... */\n      mstore(0x40, 0x80)\n      callvalue\n      dup1\n      iszero\n      tag_1\n      jumpi\n      0x00\n      dup1\n      revert\n    tag_1:\n      pop\n      jumpi(tag_2, lt(calldatasize, 0x04))\n      shr(0xe0, calldataload(0x00))\n      dup1\n      0x2e64cec1\n      eq\n      tag_3\n      jumpi\n      dup1\n      0x471f7cdf\n      eq\n      tag_4\n      jumpi\n      dup1\n      0x6057361d\n      eq\n      tag_5\n      jumpi\n    tag_2:\n      0x00\n      dup1\n      revert\n        /* \"contracts/SimpleStorage.sol\":499:588  function retrieve() public view returns (uint256){... */\n    tag_3:\n        /* \"contracts/SimpleStorage.sol\":540:547  uint256 */\n      0x00\n        /* \"contracts/SimpleStorage.sol\":566:580  favoriteNumber */\n      sload\n        /* \"contracts/SimpleStorage.sol\":499:588  function retrieve() public view returns (uint256){... */\n    tag_6:\n      mload(0x40)\n        /* \"#utility.yul\":160:185   */\n      swap1\n      dup2\n      mstore\n        /* \"#utility.yul\":148:150   */\n      0x20\n        /* \"#utility.yul\":133:151   */\n      add\n        /* \"contracts/SimpleStorage.sol\":499:588  function retrieve() public view returns (uint256){... */\n      mload(0x40)\n      dup1\n      swap2\n      sub\n      swap1\n      return\n        /* \"contracts/SimpleStorage.sol\":318:344  uint public favoriteNumber */\n    tag_4:\n      tag_6\n      sload(0x00)\n      dup2\n      jump\n        /* \"contracts/SimpleStorage.sol\":353:473  function store (uint256 _favoriteNumber) public {... */\n    tag_5:\n      tag_13\n      tag_14\n      calldatasize\n      0x04\n      tag_15\n      jump\t// in\n    tag_14:\n        /* \"contracts/SimpleStorage.sol\":412:426  favoriteNumber */\n      0x00\n        /* \"contracts/SimpleStorage.sol\":412:444  favoriteNumber = _favoriteNumber */\n      sstore\n        /* \"contracts/SimpleStorage.sol\":353:473  function store (uint256 _favoriteNumber) public {... */\n      jump\n    tag_13:\n      stop\n        /* \"#utility.yul\":196:376   */\n    tag_15:\n        /* \"#utility.yul\":255:261   */\n      0x00\n        /* \"#utility.yul\":308:310   */\n      0x20\n        /* \"#utility.yul\":296:305   */\n      dup3\n        /* \"#utility.yul\":287:294   */\n      dup5\n        /* \"#utility.yul\":283:306   */\n      sub\n        /* \"#utility.yul\":279:311   */\n      slt\n        /* \"#utility.yul\":276:328   */\n      iszero\n      tag_23\n      jumpi\n        /* \"#utility.yul\":324:325   */\n      0x00\n        /* \"#utility.yul\":321:322   */\n      dup1\n        /* \"#utility.yul\":314:326   */\n      revert\n        /* \"#utility.yul\":276:328   */\n    tag_23:\n      pop\n        /* \"#utility.yul\":347:370   */\n      calldataload\n      swap2\n        /* \"#utility.yul\":196:376   */\n      swap1\n      pop\n      jump\t// out\n\n    auxdata: 0xa2646970667358221220eef02da977e93179de83607a6668273412039d8bb33f5cbaa84b4a1a6775f2a364736f6c63430008080033\n}\n",
				"bytecode": {
					"linkReferences": {},
					"object": "608060405234801561001057600080fd5b5060bf8061001f6000396000f3fe6080604052348015600f57600080fd5b5060043610603c5760003560e01c80632e64cec1146041578063471f7cdf1460575780636057361d14605f575b600080fd5b6000545b60405190815260200160405180910390f35b604560005481565b606f606a3660046071565b600055565b005b600060208284031215608257600080fd5b503591905056fea2646970667358221220eef02da977e93179de83607a6668273412039d8bb33f5cbaa84b4a1a6775f2a364736f6c63430008080033",
					"opcodes": "PUSH1 0x80 PUSH1 0x40 MSTORE CALLVALUE DUP1 ISZERO PUSH2 0x10 JUMPI PUSH1 0x0 DUP1 REVERT JUMPDEST POP PUSH1 0xBF DUP1 PUSH2 0x1F PUSH1 0x0 CODECOPY PUSH1 0x0 RETURN INVALID PUSH1 0x80 PUSH1 0x40 MSTORE CALLVALUE DUP1 ISZERO PUSH1 0xF JUMPI PUSH1 0x0 DUP1 REVERT JUMPDEST POP PUSH1 0x4 CALLDATASIZE LT PUSH1 0x3C JUMPI PUSH1 0x0 CALLDATALOAD PUSH1 0xE0 SHR DUP1 PUSH4 0x2E64CEC1 EQ PUSH1 0x41 JUMPI DUP1 PUSH4 0x471F7CDF EQ PUSH1 0x57 JUMPI DUP1 PUSH4 0x6057361D EQ PUSH1 0x5F JUMPI JUMPDEST PUSH1 0x0 DUP1 REVERT JUMPDEST PUSH1 0x0 SLOAD JUMPDEST PUSH1 0x40 MLOAD SWAP1 DUP2 MSTORE PUSH1 0x20 ADD PUSH1 0x40 MLOAD DUP1 SWAP2 SUB SWAP1 RETURN JUMPDEST PUSH1 0x45 PUSH1 0x0 SLOAD DUP2 JUMP JUMPDEST PUSH1 0x6F PUSH1 0x6A CALLDATASIZE PUSH1 0x4 PUSH1 0x71 JUMP JUMPDEST PUSH1 0x0 SSTORE JUMP JUMPDEST STOP JUMPDEST PUSH1 0x0 PUSH1 0x20 DUP3 DUP5 SUB SLT ISZERO PUSH1 0x82 JUMPI PUSH1 0x0 DUP1 REVERT JUMPDEST POP CALLDATALOAD SWAP2 SWAP1 POP JUMP INVALID LOG2 PUSH5 0x6970667358 0x22 SLT KECCAK256 0xEE CREATE 0x2D 0xA9 PUSH24 0xE93179DE83607A6668273412039D8BB33F5CBAA84B4A1A67 PUSH22 0xF2A364736F6C63430008080033000000000000000000 "
				},
				"gasEstimates": {
					"creation": {
						"codeDepositCost": "38200",
						"executionCost": "87",
						"totalCost": "38287"
					},
					"external": {
						"favoriteNumber()": "2283",
						"retrieve()": "2247",
						"store(uint256)": "22334"
					}
				},
				"methodIdentifiers": {
					"favoriteNumber()": "471f7cdf",
					"retrieve()": "2e64cec1",
					"store(uint256)": "6057361d"
				}
			},
			"storageLayout": {
				"storage": [
					{
						"astId": 3,
						"contract": "contracts/SimpleStorage.sol:SimpleStorage",
						"label": "favoriteNumber",
						"offset": 0,
						"slot": "0",
						"type": "t_uint256"
					}
				],
				"types": {
					"t_uint256": {
						"encoding": "inplace",
						"label": "uint256",
						"numberOfBytes": "32"
					}
				}
			},
			"userdoc": {
				"kind": "user",
				"methods": {},
				"version": 1
			}
		}
	}
}