{
	"data": {
		"bytecode": {
			"linkReferences": {},
			"object": "608060405234801561001057600080fd5b5060bb8061001f6000396000f3fe6080604052348015600f57600080fd5b5060043610603c5760003560e01c8063471f7cdf1460415780636057361d14605b578063a7a0d53714606b575b600080fd5b604960005481565b60405190815260200160405180910390f35b606b6066366004606d565b600055565b005b600060208284031215607e57600080fd5b503591905056fea2646970667358221220d5bf246196028eb6b69da460c39ec4025f72748c3d8d48d0bd647dcde2ec6fab64736f6c63430008080033",
			"opcodes": "PUSH1 0x80 PUSH1 0x40 MSTORE CALLVALUE DUP1 ISZERO PUSH2 0x10 JUMPI PUSH1 0x0 DUP1 REVERT JUMPDEST POP PUSH1 0xBB DUP1 PUSH2 0x1F PUSH1 0x0 CODECOPY PUSH1 0x0 RETURN INVALID PUSH1 0x80 PUSH1 0x40 MSTORE CALLVALUE DUP1 ISZERO PUSH1 0xF JUMPI PUSH1 0x0 DUP1 REVERT JUMPDEST POP PUSH1 0x4 CALLDATASIZE LT PUSH1 0x3C JUMPI PUSH1 0x0 CALLDATALOAD PUSH1 0xE0 SHR DUP1 PUSH4 0x471F7CDF EQ PUSH1 0x41 JUMPI DUP1 PUSH4 0x6057361D EQ PUSH1 0x5B JUMPI DUP1 PUSH4 0xA7A0D537 EQ PUSH1 0x6B JUMPI JUMPDEST PUSH1 0x0 DUP1 REVERT JUMPDEST PUSH1 0x49 PUSH1 0x0 SLOAD DUP2 JUMP JUMPDEST PUSH1 0x40 MLOAD SWAP1 DUP2 MSTORE PUSH1 0x20 ADD PUSH1 0x40 MLOAD DUP1 SWAP2 SUB SWAP1 RETURN JUMPDEST PUSH1 0x6B PUSH1 0x66 CALLDATASIZE PUSH1 0x4 PUSH1 0x6D JUMP JUMPDEST PUSH1 0x0 SSTORE JUMP JUMPDEST STOP JUMPDEST PUSH1 0x0 PUSH1 0x20 DUP3 DUP5 SUB SLT ISZERO PUSH1 0x7E JUMPI PUSH1 0x0 DUP1 REVERT JUMPDEST POP CALLDATALOAD SWAP2 SWAP1 POP JUMP INVALID LOG2 PUSH5 0x6970667358 0x22 SLT KECCAK256 0xD5 0xBF 0x24 PUSH2 0x9602 DUP15 0xB6 0xB6 SWAP14 LOG4 PUSH1 0xC3 SWAP15 0xC4 MUL 0x5F PUSH19 0x748C3D8D48D0BD647DCDE2EC6FAB64736F6C63 NUMBER STOP ADDMOD ADDMOD STOP CALLER "
		},
		"gasEstimates": {
			"creation": {
				"codeDepositCost": "37400",
				"executionCost": "87",
				"totalCost": "37487"
			},
			"external": {
				"favoriteNumber()": "2261",
				"something()": "142",
				"store(uint256)": "22312"
			}
		},
		"methodIdentifiers": {
			"favoriteNumber()": "471f7cdf",
			"something()": "a7a0d537",
			"store(uint256)": "6057361d"
		}
	},
	"abi": [
		{
			"inputs": [],
			"name": "favoriteNumber",
			"outputs": [
				{
					"internalType": "uint256",
					"name": "",
					"type": "uint256"
				}
			],
			"stateMutability": "view",
			"type": "function"
		},
		{
			"inputs": [],
			"name": "something",
			"outputs": [],
			"stateMutability": "nonpayable",
			"type": "function"
		},
		{
			"inputs": [
				{
					"internalType": "uint256",
					"name": "_favoriteNumber",
					"type": "uint256"
				}
			],
			"name": "store",
			"outputs": [],
			"stateMutability": "nonpayable",
			"type": "function"
		}
	]
}